:020000040800F2
:100000004041002001010008090100080B0100081F
:100010000D0100080F010008110100080000000098
:1000200000000000000000000000000013010008B4
:100030001501000800000000170100081901000860
:100040001B0100081B0100081B01000879A500081E
:100050001B0100081B0100081B0100081B01000810
:100060001B0100081B0100084B6900081B01000868
:100070001B0100081B0100081B0100081B010008F0
:100080001B0100081B0100081B0100081B010008E0
:100090001B0100081B0100081B01000893680008F1
:1000A0001B0100081B0100081B0100081B010008C0
:1000B0001B010008B38800081B0100081B01000891
:1000C0001B0100081B0100081B0100081B010008A0
:1000D0001B010008016700081B0100081B01000844
:1000E000C14000081B0100081B010008DFF80CD00C
:1000F0000DF03EF800480047ED6C0008404100203C
:100100000648804706480047FEE7FEE7FEE7FEE7B1
:10011000FEE7FEE7FEE7FEE7FEE7FEE7C5010008B3
:10012000ED0000080CB500224C48009201920168D5
:1001300041F4803101604FF4A063016801F40031A3
:1001400001910099491C0091019911B900999942B6
:10015000F3D10168890333D50121019140490A682F
:1001600042F010020A600A6822F003020A600A687C
:1001700042F002020A6041684160416841604168A2
:1001800041F480614160416821F47C114160416823
:1001900041F4E8114160016841F08071016001683B
:1001A0008901FCD5416821F003014160416841F0BB
:1001B000020141604168C1F381010229FAD10CBDFD
:1001C00001920CBD254810B5016841F001010160A4
:1001D0004168244A114041600168234A114001608E
:1001E000016821F480210160416821F4FE01416031
:1001F0004FF41F018160FFF795FF1C494FF000602D
:10020000086010BD154A10B55068194B10F00C016C
:10021000184803D0042901D0082901D0036012E056
:100220005168536801F470114FF0020413F4803FD9
:1002300004EB914102D053689B0301D50E4B00E0C3
:100240000B4B5943016051680A4AC1F30311121D57
:10025000515C0268CA40026010BD000000100240FC
:10026000002002400000FFF8FFFFF6FE08ED00E06E
:1002700000127A000000002000093D008F4910B5EF
:10028000884206D10121042000F049FA002104200F
:100290003BE08B49884206D10121082000F03FFA5B
:1002A0000021082031E08749884206D10121102031
:1002B00000F035FA0021102027E08349884206D15A
:1002C0000121202000F02BFA002120201DE07F4991
:1002D000884206D10121402000F021FA002140206F
:1002E00013E07B49884206D10121802000F017FAF3
:1002F0000021802009E0774988420AD18415012134
:10030000204600F00CFA00212046BDE8104000F025
:1003100006BA10BD10B50121084600F000FA002110
:10032000BDE81040012000F0FAB9F0B5CC78002209
:1003300004F00F03E40601D58C7823430C784FF0CA
:100340000F0C14F0FF0F4FF0010E1BD005680E8844
:100350000EFA02F42640A64210D196000CFA06F7D7
:1003600025EA070703FA06F5CE783D43282E02D08A
:10037000482E02D002E0446100E00461521C082AC9
:10038000E5D305600A88FF2A1CD94468002202F1DF
:1003900008060EFA06F50E882E40AE420ED19600E3
:1003A0000CFA06F7BC4303FA06F7CE783C43282E36
:1003B00000D14561CE78482E00D10561521C082A33
:1003C000E5D34460F0BD4FF6FF71018002218170DA
:1003D0000421C17070470246002092680A4200D092
:1003E00001207047806880B2704702460020D268C2
:1003F0000A4200D001207047C06880B27047016196
:100400007047416170470AB10161704741617047AF
:10041000C160704741F4803282618161826181698B
:10042000806970472C4B10B51A684FF680742240D3
:1004300042EA00100843186010BD2849C86170479F
:10044000F0B5254C002801DAE36900E06368450D4A
:100450002E0185B2C0F30157B540C0F30342032F0C
:1004600005D0C6020AD503269640B34307E023F021
:100470007062636823F07063636002E0AB4343F033
:10048000706201B12A43002801DAE261F0BD6260C6
:10049000F0BD10B58A0721F003040F49120F214463
:1004A0000F238C6893409C438C608B68904003437F
:1004B0008B6010BD0949C1F8DC007047000801409D
:1004C000000C0140001001400014014000180140E0
:1004D000001C0140002001400000014000002042BB
:1004E000A548016841F0010101604168A34A11403B
:1004F00041600168A24A11400160016821F4802135
:100500000160416821F4FE0141604FF41F018160E8
:10051000704799490A6822F480320A600A6822F416
:1005200080220A60B0F5803F07D0B0F5802F03D15C
:10053000086840F4A02008607047086840F48030E4
:10054000F9E70346002059098B4A01290AD00229FC
:100550000AD0516A03F01F02012393400B4200D0DE
:10056000012070471168F5E7116AF3E718B500201C
:100570004FF4A06400903120FFF7E3FF0099491C7D
:100580000091A14201D00028F5D03120FFF7D9FF1A
:10059000002800D0012018BD774A116821F0F80129
:1005A00041EAC00010607047764908607047724B9E
:1005B0005A68084322F47C1210435860704771490E
:1005C000086670476C4A516821F00301014351608D
:1005D00070476948406800F00C007047664A5168EF
:1005E00021F0F001014351607047634A516821F4E2
:1005F000E0610143516070475F4A516821F46051E6
:1006000041EAC000506070475B4A0029517A01D02E
:10061000014300E08143517270475A49C1F8D80044
:100620007047554A516821F4404101435160704779
:100630005149002281F8202081F82020012802D091
:10064000042802D1052081F8200070474E49086037
:10065000704749490A6A02430A6270474A49443965
:100660000860704730B5444A5168484B11F00C019E
:1006700003D0042901D0082901D0036012E0516899
:10068000536801F470114FF0020413F4803F04EB3F
:10069000914102D053689B0301D53D4B00E03B4B99
:1006A0005943016051680F2303EA1111394B5C5C17
:1006B0000168E14041605468072505EA14241C5D87
:1006C00021FA04F48460546805EAD4241B5DD940FF
:1006D000C1605268032303EA92322E4B1B1F9A5CBF
:1006E000B1FBF2F1016130BD234A0029516901D00B
:1006F000014300E08143516170471F4A002991691D
:1007000001D0014300E08143916170471A4A0029FA
:10071000D16901D0014300E08143D1617047164A9D
:100720000029D16801D0014300E08143D1607047C6
:10073000114A0029116901D0014300E08143116190
:10074000704711494039086070470E49C8647047C6
:100750000949C87170470848416A41F08071416297
:100760007047054A0146002092680A4200D00120E5
:100770007047014988727047001002400000FFF87E
:10078000FFFFF6FE000042428004424200127A005F
:1007900000093D0018000020C44910B588420AD164
:1007A00001218C032046FFF7BAFF2046BDE8104028
:1007B0000021FFF7B4BFBE49884202D101214C0499
:1007C00010E0BC49884202D101218C040AE0BA49F8
:1007D000884202D10121CC0404E0B84988420AD100
:1007E00001210C052046FFF7A3FF2046BDE810407D
:1007F0000021FFF79DBF10BD30B50446008A85B0CB
:100800000D464CF6FF710840E98801432182A0891A
:100810004EF6F3110840A9882A8911436A890243D8
:100820001143A181A08A4FF6FF410840A9890143E5
:10083000A1826846FFF716FF9C48844201D10398C5
:1008400000E00298A189090400EBC00101EB00104F
:10085000296801D5490000E08900B0FBF1F064226D
:10086000B0FBF2F109010B096FF018056B4300EBC7
:100870008300A3891D044FF0320306D503EBC000AB
:10088000B0FBF2F000F0070005E003EB0010B0FB56
:10089000F2F000F00F000843208105B030BD4FF4A6
:1008A0001651016000218180C18001810C224281AA
:1008B0008181704710B5028A4FF2FF031A400B88FE
:1008C0004C8823438C88C9880C43234313430382F9
:1008D00010BD0021018041808180C18070470029C6
:1008E000818902D041F4005101E021F4005181815D
:1008F000704710B5C1F3421301F01F040121A1405C
:10090000012B07D0022B07D01430002A026805D033
:100910000A4304E00C30F8E71030F6E78A4302603F
:1009200010BD002A828A01D00A4300E08A438282F5
:100930007047028A22F00F020282028A0A43028270
:100940007047828922F40062828182890A4382810F
:1009500070470029818902D041F0020101E021F0B5
:10096000020181817047028A22F020020282028AFB
:100970000A43028270470029018A02D041F4804173
:1009800001E021F4804101827047C1F308018180B8
:1009900070478088C0F308007047818941F00101E9
:1009A00081817047028BD2B20283028B42EA01211D
:1009B00001837047028B02F47F420283028B0A4359
:1009C000028370470029818A02D041F0200101E0B2
:1009D00021F02001818270470029818A02D041F0F4
:1009E000100101E021F01001818270470029818A05
:1009F00002D041F0080101E021F008018182704736
:100A00000029818902D041F4004101E0C1F30E01C7
:100A1000818170470029818A02D041F4006101E0A0
:100A200021F4006181827047828A22F0040282826E
:100A3000828A0A43828270470029818A02D041F06B
:100A4000020101E021F0020181827047024600208C
:100A500012880A4200D001207047C94301807047C4
:100A600070B501F01F0501260024C1F3421306FAF8
:100A700005F2012B0FD0022B0FD0838A4FEA1121F0
:100A80000088134206FA01F600EA060001D000B120
:100A90000124204670BD8389F0E7038AEEE70A0A45
:100AA00001219140C9430180704700000038014096
:100AB0000044004000480040004C0040005000400E
:100AC0002849084328490860704730B50F23C27889
:100AD00001780125F2B1244A126801F1E02102F403
:100AE000E062C2F5E062120AC2F10404D340427827
:100AF000A24084781C401443220181F8002400782D
:100B000000F01F018D404009800000F1E020C0F896
:100B1000005130BD01F01F0085404809800000F100
:100B2000E020C0F8805130BD104A114001430E480A
:100B3000001F016070470C4A121D0029116801D086
:100B4000014300E08143116070474FF0E021042829
:100B5000086903D020F004000861704740F00400E9
:100B6000FAE700000000FA050CED00E080FFFF1F2F
:100B7000F94910B5884202D10121C41486E0B0F1D0
:100B8000804F09D0F54988420DD101210220FFF79D
:100B9000CFFD0021022064E001210846FFF7C8FDD7
:100BA000002101205DE0EE49884206D101210420A8
:100BB000FFF7BEFD0021042053E0EA49884206D138
:100BC00001210820FFF7B4FD0021082049E0E64993
:100BD000884206D101211020FFF7AAFD0021102034
:100BE0003FE0E249884206D101212020FFF7A0FD25
:100BF0000021202035E0DE49884202D10121441441
:100C000044E0DC49884202D10121CC043EE0DA49CB
:100C1000884202D101210C0538E0D849884202D12E
:100C200001214C0532E0D649884206D101214020FD
:100C3000FFF77EFD0021402013E0D249884206D113
:100C400001218020FFF774FD0021802009E0CE49BA
:100C500088420AD1841501212046FFF769FD002151
:100C60002046BDE81040FFF763BDC849884202D165
:100C700001210C040AE0C649884202D101214C043A
:100C800004E0C44988420AD101218C042046FFF7C0
:100C900046FD2046BDE810400021FFF740BD10BDD5
:100CA00030B50288AC4CB24DA0420DD0A8420BD05A
:100CB000B0F1804F08D0A94B984205D0A84B98427C
:100CC00002D0A84B984203D122F070034A881A43FD
:100CD000A54B984206D0A54B984203D022F440730E
:100CE000CA881A4302808A8882850A880285A042BF
:100CF0000AD0A84208D0A54A904205D0A44A904202
:100D000002D0A44A904201D1097A01860121818250
:100D100030BD30B5028C22F001020284028C83883F
:100D2000048B22F0020224F073050C882C430D89F9
:100D300015434A882A43884DA8420BD08C4DA842BF
:100D400008D0924DA84205D0914DA84202D0914DB5
:100D5000A8420DD122F008054A8923F440732A43A2
:100D600022F004058A882A438D891D43CB892B43B1
:100D700083800483C9888186028430BD70B5028C6B
:100D800022F010020284028C8388048B0D8824F4E4
:100D9000E6464FF6FF7404EA052535430E8922F036
:100DA000200204EA061616434A8804EA0212324375
:100DB000694EB04202D06E4EB04215D122F080068C
:100DC0004A8923F4406304EA0212324322F04006C7
:100DD0008A8804EA021232438E8904EA86061E4398
:100DE000CB8904EA8303334383800583C988018761
:100DF000028470BD70B5028C22F480720284028C71
:100E00008388848B0D8824F0730425430E894FF664
:100E1000FF7422F4007204EA062616434A8804EAA4
:100E2000022232434C4EB04202D0514EB04215D154
:100E300022F400664A8923F4405304EA0222324332
:100E400022F480668A8804EA022232438E8904EA08
:100E500006161E43CB8904EA03133343838085833C
:100E6000C9888187028470BD70B5028C22F48052DB
:100E70000284058C8288838B0C8823F4E6464FF627
:100E8000FF7303EA0424344325F400560D8903EA72
:100E9000053535434E8803EA06362E432E4DA842CB
:100EA00002D0334DA84205D122F480458A8903EA55
:100EB00082122A4382808483C988A0F84010068465
:100EC00070BD828B22F440628283828B4FF6FF7367
:100ED00003EA01210A4382837047828B22F00C02CD
:100EE0008283828B0A4382837047028B22F44062A2
:100EF0000283028B4FF6FF7303EA01210A43028348
:100F00007047F0B5048C24F010040484078B048C23
:100F10004FF6FF7527F4734705EA03333B4305EAB1
:100F200002221A430C4B05EA011698420ED0104BD0
:100F300098420BD0B0F1804F08D0084B984205D0B2
:100F4000074B984202D0074B984225D124F020014C
:100F5000314341F0100124E0002C01400004004026
:100F600000080040000C0040001000400014004049
:100F700000340140004C0140005001400054014049
:100F800000180040001C00400020004000400140CC
:100F9000004401400048014024F0A0030B4343F00B
:100FA000100102830184F0BD028B22F00C02028347
:100FB000028B0A430283704770B5048C24F001044D
:100FC0000484058B048C4FF6FF7606EA0313134363
:100FD00025F0F305F84A2B4390420ED0F74A904291
:100FE0000BD0B0F1804F08D0F54A904205D0F54AB9
:100FF000904202D0F44A904202D124F0020201E071
:1010000024F00A020A4342F001010383018470BD07
:101010002DE9F84F0D4604460888E74FDFF89CC3DA
:10102000DFF89C83DFF89C934988AA882B894FF0CE
:10103000804A48B304282FD04FF6FF7608289346FD
:1010400032D0208C9E4620F480502084A38B208CAC
:1010500006EA0132009223F4734306EA0B221A4394
:1010600006EA0E331343BC420AD0644508D0544507
:1010700006D0444504D04C4502D0D34A944242D1D4
:1010800020F40050009940E02046FFF795FFE988E2
:101090002046BDE8F84F87E72046FFF732FFE98892
:1010A0002046BDE8F84F20E7208C20F48070208493
:1010B000B4F81CE0208C06EA031306EA01222EF0A5
:1010C000F30E43EA0B0343EA0E030092BC420AD03C
:1010D000644508D0544506D0444504D04C4502D060
:1010E000B94A944203D120F40070009901E020F441
:1010F0002060084340F48070A3832084E988204660
:10110000BDE8F84FE9E620F40240084340F480507F
:10111000A3832084E9882046BDE8F84FD1E62DE975
:10112000F0410C46002649880746012501B90226F0
:10113000A288012A00D10225208823890028384668
:1011400010D0FFF7DEFEE1883846FFF7CEFE238998
:101150002A4631463846FFF72FFFE1883846BDE87A
:10116000F04121E7FFF728FFE1883846FFF71CFF31
:1011700023892A4631463846FFF7C3FEE1883846C0
:10118000BDE8F041B1E610B50A884B88CC881A4317
:101190008B8823431A430B891A434B8989891A4345
:1011A0000A43A0F8442010BD4FF6FF718180002152
:1011B0000180C1804180017270470021018041801F
:1011C0008180C180018141818181C181704700217D
:1011D0000180418001228280C1800181704700210D
:1011E000018041808180C18001814181818170477E
:1011F0000029018802D041F0010101E021F0010144
:1012000001807047002930F8441F02D041F40041AA
:1012100001E0C1F30E0101807047002A828901D0EC
:101220000A4300E08A4382817047818270471143FC
:10123000A0F848107047002A828901D00A4300E0D4
:101240008A4382817047018921F00701018170473B
:10125000028922F070020A430281704700B50346FA
:10126000FFF7F6FF188940F00700188100BD70B540
:1012700016460D46602904464FF0010231460AD059
:10128000FFF79AFE29462046FFF7E2FF208940F04B
:101290000700208170BDFFF734FEF3E730B5048905
:1012A0004FF6FF7505EA03231343E4B20B432343D0
:1012B000038130BD10B50446FFF7F0FF208940F0F0
:1012C0007700208110BD10B50446FFF7E7FF2089A5
:1012D00040F48040208110BD0185828270470288E1
:1012E00022F070020A430280704770B50589048BB2
:1012F000068C25F007050D434FF6FC410C4040F2EB
:1013000001110C434FF6FF7101EA031126F022068A
:101310001143314305810483018470BD028B22F0A7
:1013200070020A4302837047028B4FF6FF7322F468
:10133000E04203EA0121114301837047828B22F0CE
:1013400070020A4382837047828B4FF6FF7322F448
:10135000E04203EA0121114381837047002901889B
:1013600002D041F0800101E021F08001018070474E
:101370000029818802D041F0040101E021F004013C
:10138000818070470029818802D041F0080101E086
:1013900021F00801818070470029818802D041F046
:1013A000010101E021F0010181807047028B22F0F0
:1013B00008020A4302837047002C014000340140B8
:1013C0000004004000080040000C0040028B4FF673
:1013D000FF7322F4006203EA012111430183EAE76B
:1013E000828B22F008020A438283E4E7828B4FF665
:1013F000FF7322F4006203EA012111438183DAE7DB
:10140000028B22F004020A430283D4E7028B4FF6D8
:10141000FF7322F4806203EA012111430183CAE7CA
:10142000828B22F004020A438283C4E7828B4FF648
:10143000FF7322F4806203EA012111438183BAE73A
:10144000028B22F080020A430283B4E7028B4FF63C
:10145000FF73C2F30E0203EA012111430183AAE7DD
:10146000828B22F080020A438283A4E7828B4FF6AC
:10147000FF73C2F30E0203EA0121114381839AE74D
:10148000028C22F002020A43028494E7028C22F0CA
:1014900008020A4302848EE7028C4FF6FF7322F0A3
:1014A000200203EA01111143018484E7028C4FF604
:1014B000FF7322F0800203EA0111114301847AE7ED
:1014C000028C4FF6FF7322F4007203EA01211143EC
:1014D000018470E7028C4FF6FF7322F4006203EA86
:1014E00001211143018466E7028C4FF6FF7322F459
:1014F000005203EA0131114301845CE710B5012376
:10150000048C8B409C430484038C8A4013430384E3
:1015100010BD10B50423048C8B409C430484038CC1
:101520008A401343038410BD30B50124058C00F1BB
:1015300018038C40A543058489B108290FD0091FE1
:10154000C1F34E001844016821F4E04101600168D4
:101550004FF6FF7303EA02221143016030BD03EB33
:101560005100016821F0700101600168F4E7002971
:10157000018802D041F0020101E021F00201018066
:1015800019E70029018802D041F0040101E021F0AF
:10159000040101800FE70029818802D041F0800119
:1015A00001E021F08001818005E7028822F0080235
:1015B000028002880A430280FDE6828822F07002DF
:1015C000828082880A438280F5E6028922F007023F
:1015D000028102890A430281EDE6028922F080023B
:1015E000028102890A430281E5E68184E3E681857E
:1015F000E1E68186DFE60187DDE68187DBE6A0F8AC
:101600004010D8E6028822F44072028002880A4321
:101610000280D0E6808ECEE6008FCCE6808FCAE6D0
:10162000B0F84000C7E6808CC5E6008DC3E60246F0
:101630000020128A0A4200D00120BCE6C943018280
:10164000B9E602460020138A92890B4202EA01029F
:1016500002D0002A00D00120ADE6C9430182AAE6EB
:10166000C54910B5884202D1012144150AE0C34999
:10167000884202D10121041504E0C14988420AD1FF
:101680000121CC032046FFF74AF82046BDE8104070
:101690000021FFF744B810BD10B54268B94B0C7972
:1016A0001A400B6842EA0422134343608268B64B37
:1016B0001A40D1E9024323434C7942EA44021343DE
:1016C0008360C26A097C22F47002491EC9B242EAF0
:1016D0000151C16210BD0021016001714171816041
:1016E000C1600121017470470029816802D041F076
:1016F000010101E021F0010181607047002981684A
:1017000002D041F4807101E021F480718160704762
:10171000002A4268C9B201D00A4300E08A4342600D
:101720007047816841F008018160704701460020E0
:101730008968090700D501207047816841F00401DC
:1017400081607047014600208968490700D5012063
:1017500070470029816802D041F4A00101E021F422
:10176000A00181607047014600208968490200D5C8
:10177000012070474268491E22F4604242EA41312A
:10178000416070470029416802D041F4006101E0E6
:1017900021F400614160704770B5072609290AD914
:1017A000C568A1F10A0404EB4404A640B543A34074
:1017B0001D43C56007E0056901EB4104A640B54340
:1017C000A3401D4305611F23072A09D2446B521E03
:1017D00002EB820293409C4391400C43446370BDF2
:1017E0000D2A09D2046BD21F02EB820293409C4364
:1017F00091400C43046370BDC46A0D3A02EB82024F
:1018000093409C4391400C43C46270BD00298168A1
:1018100002D041F4801101E021F480118160704711
:10182000C06C80B2704754484C3000687047002943
:10183000416802D041F4806101E021F4806141609F
:1018400070470029416802D041F4805101E021F441
:10185000805141607047826822F4E0420A4382600E
:1018600070470029816802D041F4004101E021F471
:101870000041816070470029816802D041F4021163
:1018800001E021F40211816070470146002089685F
:10189000890200D50120704770B5072609290AD9A9
:1018A000C568A1F10A0404EB4404A640B543A34073
:1018B0001D43C56007E0056901EB4104A640B5433F
:1018C000A3401D430561836BC3F30154121B921C9B
:1018D00002EB82021F249440A34391400B43836395
:1018E00070BD826B491E22F4401242EA01518163AD
:1018F000704708B508440090026008BD08B5084468
:1019000028300090006880B208BD42681F4B1A4022
:101910000A4342607047416282627047426822F027
:101920001F020A43426070471349083100280868C3
:1019300002D040F4000001E020F40000086070478D
:101940000246002012680A4200D001207047C943B5
:101950000160704710B50246002054680B0AC9B2F6
:101960000C401168194202D0002C00D0012010BD9B
:101970006FEA1121016070470024014000280140F6
:10198000003C0140FFFEF0FFFDF7F1FFFFFD3FFFD0
:1019900010B501210C072046FEF7CAFE2046BDE81F
:1019A00010400021FEF7C4BE21490862704720495B
:1019B000086170471F4A116821F0E001014311607E
:1019C00070471B49C1F8A00070471A4B1A6822F0F3
:1019D000030202431A601848026842F004020260DF
:1019E000012905D020BF016821F004010160704782
:1019F00030BFF8E70F48016841F004010160016859
:101A000041F0020101600C48016841F004010160ED
:101A100030BF7047074A0146002052680A4200D092
:101A20000120704703490A6842EA80000860704755
:101A300000000E420070004010ED00E03749002029
:101A40000860091D0860091D0860091D0860334908
:101A5000334814310860704730B5304A83790168E3
:101A600053B313688B431360111D0B680468A343C1
:101A70000B60017911440B68046823430B60274B0A
:101A8000083319680468A14319601C1D21680568A2
:101A9000A94321604179102905D011440A680068E2
:101AA00002430A6030BD1968026811431960216859
:101AB00000680143216030BD0079104402688A4308
:101AC000026030BD0021016001710C224271817100
:101AD0007047124910310A6802430A607047014694
:101AE0000E4A0020143212680A4200D001207047CA
:101AF0000A49143108607047084A014600201268FC
:101B0000064B0A4014331B680B4202D0002A00D057
:101B100001207047014914310860704700040140FA
:101B2000FFFF0F00424A0029118801D0014300E065
:101B30008143118070473E48001D018841F010012B
:101B4000018070473A48001D018821F01001018092
:101B5000704737481C30008835491831098840EAF9
:101B60000140704700B50246FFF7E5FF3049100C11
:101B700018310880081D02805DF804EBE2E700B52B
:101B80000246FFF7D8FF2A49C2F303400831088014
:101B9000081D02805DF804EBD4E700B50246FFF7AC
:101BA000CAFF2349100C20310880081D02805DF80F
:101BB00004EBC7E71E48103000880007010B1C48E3
:101BC00014300088084370471948001D01888906B1
:101BD000FCD570471648001D018821F008010180DE
:101BE00001880907FCD570470146114A0020121DE3
:101BF00012880A4200D0012070470D49091D0A8849
:101C000082430A8070470A49091D0988C2B21140FF
:101C1000074A1288024202D009B101207047002011
:101C200070470349091D0A8882430A8070470000F3
:101C30000028004010B50120FEF783FDBDE81040EC
:101C40000020FEF77EBD1F49086070471D49091F2F
:101C5000086070471B498431086070471A4A118830
:101C600021F46071014311807047174A118821F0F7
:101C70007F01014311807047134A08B52C3A104484
:101C80000090016008BD104908B52C390844009047
:101C9000008808BD0B489C300068C0B270470A48F5
:101CA0000830018841F00101018070470548A030EB
:101CB0000068C0B2704704480830018841F0020152
:101CC0000180704704860D422C6C0040FD4A11686B
:101CD00001F03801014311607047FA490A6822F0A7
:101CE00008020A600A6802430A607047F5490A68F8
:101CF00022F010020A600A6802430A607047F14845
:101D0000F1494160F14941607047EE48EE49416058
:101D1000EE4941607047EB48016941F08001016183
:101D20007047E848016941F0800101617047E54969
:101D30000420CA68D20701D001207047CA68520740
:101D400001D502207047C968C906FBD5032070473A
:101D500000B50346FFF7EBFF02E0FFF7E8FF5B1E6D
:101D6000012803D0002B00D1052000BD002BF4D1A9
:101D7000FAE770B505464FF430263046FFF7E8FF26
:101D8000042811D1CF4C206940F002002061656128
:101D9000206940F0400020613046FFF7D9FF2169FB
:101DA00041F6FD721140216170BD30B54FF4302510
:101DB0002846FFF7CDFF042810D1C24C206940F01F
:101DC00004002061206940F0400020612846FFF7B0
:101DD000BFFF216941F6FB721140216130BD00B5A2
:101DE0000346FFF7A4FF02E0FFF7A1FF5B1E0128F7
:101DF00003D0002B00D1052000BD002BF4D1FAE761
:101E000030B54FF430252846FFF7E9FF042810D1FC
:101E1000AC4C206940F004002061206940F0400093
:101E200020612846FFF7DBFF216941F6FB72114074
:101E3000216130BDA3490020C969890700D501206F
:101E4000704770B5A525FFF7F5FF00B100254FF4E9
:101E500030263046FFF77CFF042827D1994C9A485A
:101E6000A0609A48A060206940F0200020612069AD
:101E700040F0400020613046FFF76AFF41F6EF7600
:101E800004280ED1206941F6DF71084020612069E5
:101E900040F0100020618E4805804FF40050FFF79D
:101EA00057FF052802D021693140216170BDF8B586
:101EB000064600204FF4005C00900D466046FFF798
:101EC00047FF042816D17F4C206940F001002061B3
:101ED00035806046FFF73CFF41F6FE77042806D1C7
:101EE000B61C280C009630806046FFF731FF216950
:101EF00039402161F8BDF0B506464FF400570D4654
:101F00003846FFF725FF04280CD16E4C206940F0BD
:101F10000100206135803846FFF71AFF2169BA1E9B
:101F200011402161F0BDF0B506464FF400570D4653
:101F30003846FFF70DFF042813D1624C6248A060B9
:101F40006248A060206940F010002061358038466A
:101F5000FFF7FEFE052804D0216941F6EF7211401B
:101F60002161F0BD2DE9F041C043C7B2C0F307269F
:101F7000C0F30745040E4FF400584046FFF7E8FE53
:101F800004283CD1DFF83CC14F49CCF808104F4938
:101F9000CCF80810DCF8101041F01001CCF810104B
:101FA000FF2F07D04A48083007804046FFF7D0FE91
:101FB00004281BD1FF2E07D045480A300680404632
:101FC000FFF7C6FE042811D1FF2D07D040480C3082
:101FD00005804046FFF7BCFE042807D1FF2C07D040
:101FE0003B480E3004804046FFF7B2FE052806D07D
:101FF000DCF8101041F6EF721140CCF81010BDE87B
:10200000F08170B505464FF430263046FFF7A0FE4C
:10201000042818D12B4C2C48A0602C48A0602069C3
:1020200040F020002061206940F0400020613046EF
:10203000FFF78EFE41F6DF71042805D0052802D097
:1020400022690A40226170BD206908402061206930
:1020500040F0100020611E480DB1002100E0A521D4
:1020600001803046FFF774FE0528ECD0216941F667
:10207000EF721140216170BDF0B5124C0746124855
:1020800016460D46A0601148A0604FF4005C604603
:10209000FFF75EFE042814D1206940F01000206193
:1020A00035430B493D43891C45F0F80008806046E4
:1020B000FFF74EFE052804D0216941F6EF7211406A
:1020C0002161F0BD0020024023016745AB89EFCDBF
:1020D00000F8FF1F1C48C069800870471A48006A52
:1020E0007047194900200968890600D5012070470A
:1020F000154A0029116901D0014300E081431161B3
:10210000704701460020104A012903D0D2680A42D4
:1021100003D17047D169C907FBD0012070470A4934
:10212000C860704708490420CA68D20701D001205E
:102130007047CA68520701D502207047C968C906AE
:10214000FBD503207047000000200240F0B50C468C
:102150000546012189B00846FEF7D8FA012105207D
:10216000FEF7CBFA01216748FEF76AF901216648BC
:10217000FEF766F94FF40046ADF81C6018218DF8A3
:102180001F100320614F8DF81E0007A93846FEF787
:10219000CCF831463846FEF734F9ADF81450ADF8B6
:1021A00010400024F503ADF81640ADF8124004A924
:1021B0002846FEF775FD7021ADF800100120ADF83E
:1021C00002001920ADF80600ADF80840694628461F
:1021D000FEF79FFD01212846FFF714F8002128464D
:1021E000FFF706F809B0F0BD40F29F513220ADE78D
:1021F00010B541F28831CC062046FFF7FAF90021EC
:102200002046FEF7F5FF00212046FEF7FBFFE11315
:102210003E48FEF7F6F83E4800214180017010BDAF
:1022200070B53B4D14460E462A78049993424DD31F
:10223000F6B12B70A960688006F038FB41F2883156
:102240006860CD06012E16D03248012C21D0022C18
:1022500021D0032C21D002224CF25030B0FBF6F4F6
:10226000EAB1012A2CD0022A2CD0032A1AD12BE061
:10227000BDE87040BCE72846FFF7BBF900212846BF
:10228000FEF7B6FFBDE870404FF400411F48FEF76F
:10229000B8B8027AE0E7427ADEE7827ADCE72846DD
:1022A000FFF7A7F921462846FFF7A1F900212846A4
:1022B000FFF79BF92846BDE870400121FEF798BF63
:1022C000E108ECE7A108EAE76108E8E770BD10481B
:1022D0004088002800D00120704710B50C4C608861
:1022E00000280ED006F0E2FA6168401A6188884240
:1022F00007D3FFF77DFFA068002802D0BDE810409B
:10230000004710BD00043000000118000008014023
:1023100028000020600C002008B501210C20FEF7E9
:10232000ECF98020ADF8000003208DF802001020A9
:102330008DF803006946C848FDF7F7FF0120ADF8A6
:1023400000006946C548FDF7F0FF08BD08B501204B
:10235000ADF8000048208DF803006946BF48FDF73E
:10236000E4FF08BD08B50120ADF8000010208DF88D
:10237000030003208DF802006946B848FDF7D5FF39
:1023800008BD70B5FFF7EEFFB448012410300460BB
:10239000B149802010310860032004F026F9AF4EC7
:1023A00008363068002809D0AC4D14352C60032065
:1023B00004F01BF93068C00701D0002070BD2C600C
:1023C000032004F012F9012070BD70B5FFF7CAFFB9
:1023D000A148802514300560A04801241430046011
:1023E000032004F002F99C4810300560032004F03B
:1023F000FCF89A4810300460BDE87040032004F0F7
:10240000F4B870B5944D802414352C60FFF7AAFF02
:102410009249012014310860032004F0E6F8281FD7
:102420000460032004F0E1F82C60BDE87040032054
:1024300004F0DBB870B5884D802414352C60FFF7AC
:1024400091FF032004F0D1F8844901201031086085
:10245000032004F0CAF8281F0460032004F0C5F824
:102460002C60BDE87040032004F0BFB870B50024B4
:10247000FFF76CFF784E802514363560032004F09A
:10248000B4F87649012010310860032004F0ADF85B
:10249000301F0560032004F0A8F87048083007E0FA
:1024A000641CE4B2FA2C03D9FFF78FFF002070BD43
:1024B0000168C907F4D13560012070BD70B50024F2
:1024C000FFF744FF6549012010310860032004F044
:1024D0008CF86148802510300560032004F085F8F1
:1024E0005E48083007E0641CE4B2FA2C03D9FFF719
:1024F0006CFF012070BD0168C907F4D15648143043
:102500000560002070BD2DE9F05F05460824FFF747
:1025100029FFDFF84481DFF844B108F114080126EF
:102520000BF1100B80270BF10409A8F1040A12E04B
:10253000032004F05AF8280601D5584600E0484622
:1025400006606806050E032004F04FF8CAF8007014
:10255000032004F04AF8641EE4B2C8F80070E7D221
:10256000BDE8F09F2DE9F04708250024FFF7EEFEB7
:102570003A49012010310860374F8026DFF8DC909F
:102580001437A7F1040809F1080910E06006040EE9
:102590003E60032004F029F8C8F80060032004F02E
:1025A00024F8D9F80000C00701D044F001046D1EE2
:1025B000EDB2EBD23E602046BDE8F08770B5144620
:1025C0000D460646FFF7CEFEFFF7DBFE002815D0CE
:1025D0003046FFF798FFFFF749FF80B12846FFF725
:1025E00092FFFFF743FF2046FFF78DFFFFF73EFF07
:1025F000FFF7EBFE052004F00FF8012070BDFFF798
:10260000E4FE002070BD70B50D460446FFF79EFE47
:10261000FFF7B7FE00281AD02046FFF774FFFFF738
:1026200025FFA8B12846FFF76EFFFFF71FFFFFF752
:10263000A8FE641CE0B2FFF766FFFFF717FFFFF785
:1026400091FF0446FFF7F6FEFFF7BFFE204670BD80
:10265000FFF7BBFE002070BD00080140000C0140E8
:1026600070B586B001214FF40170FEF746F84FF4C3
:102670000040FDF7D6FF0126ADF8146000248DF868
:10268000174005A93D48FDF750FE3D4D2846FEF791
:10269000E7FF4FF46020CDE902048DF80440009478
:1026A0008DF805408DF8106069462846FEF7F4FF66
:1026B00001212846FFF718F82846FFF732F8284688
:1026C000FFF734F80028FAD12846FFF736F82846F5
:1026D000FFF738F80028FAD101212846FFF739F82A
:1026E00006B070BD10B5264C0146072301222046D6
:1026F000FFF752F801212046FFF72BF80221204670
:10270000FFF71EF90028F9D02046BDE81040FFF77A
:1027100087B82DE9F04700248846814627464FF6C2
:10272000FF7625464846FFF7DDFF322003F05DFFC8
:102730006D1CEDB2042DF5D300250EE04846FFF7E1
:10274000D1FFB84200D90746B04200D20646044441
:10275000322003F04AFF6D1CEDB24545EED3B8F1CF
:10276000020F06D9E01B811BA8F10200B1FBF0F0BB
:1027700001E0B4FBF8F080B2BDE8F087000801404A
:102780000024014000F00F01000900EB800001EB84
:102790004000C0B270470A21B0FBF1F2B0FBF1F388
:1027A00001FB130000EB0210C0B27047012802D0F9
:1027B000801EC0B270470620FBE7062802D0801CAE
:1027C000C0B270470120FBE770B50D460446FFF725
:1027D000D8FDD020FFF797FEFFF748FE2046FFF711
:1027E00092FEFFF743FE2846FFF78DFEFFF73EFE01
:1027F000BDE87040FFF7E9BD10B50446FFF7C1FD25
:10280000D020FFF780FEFFF731FE2046FFF77BFE6A
:10281000FFF72CFEFFF7B5FDD120FFF774FEFFF7A1
:1028200025FEFFF79FFE0446FFF7CFFD204610BDB3
:1028300010B5FFF771FD00210E20FFF7C5FF022044
:1028400003F0EAFE00210F20FFF7BEFF022003F095
:10285000E3FE05210E20FFF7B7FFBDE81040022080
:1028600003F0DABE10B5984CA078FFF794FFC1B220
:102870000220FFF7A9FF6078FFF78DFFC1B20120AA
:10288000FFF7A2FF2078FFF786FFC1B2BDE8104036
:10289000002099E710B58C4CE079FFF77CFFC1B2BE
:1028A0000620FFF791FFA079FFF775FFC1B2052061
:1028B000FFF78AFF6079FFF76EFFC1B20420FFF7D0
:1028C00083FF2079FFF779FFFFF765FFC1B2BDE80D
:1028D0001040032078E77C480B21417105210171EC
:1028E000022181711621C171704770B50620FFF772
:1028F00083FF764CE070FFF745FF734DE8710520CC
:10290000FFF77AFF2071FFF73DFFA8710420FFF762
:1029100073FF6071FFF736FF68710220FFF76CFFED
:102920002070FFF72FFFA8700120FFF765FF607090
:10293000FFF728FF68700020FFF75EFFA070FFF729
:1029400021FF28700320FFF757FFFFF72FFFA0712B
:10295000FFF718FF28711120FFF74EFFE0711220DA
:10296000FFF74AFF800900EBC00101EB0010207265
:102970000AF0ABF9564909F0B6FF0546E0790AF0CE
:10298000A4F9294609F025FF5249086070BD38B501
:10299000684604F0A5FA002850D09DF801209DF863
:1029A00000104DA00AF040FC00210720FFF70CFFAB
:1029B0009DF80100FFF7EFFEC1B20820FFF704FF0A
:1029C0009DF80000FFF7E7FEC1B20920FFF7FCFE0B
:1029D00004F092FA0546FFF7F0FE0446FFF7DBFE2F
:1029E000C0B240F040010A20FFF7EEFE42A00AF01C
:1029F0001BFC2246294649A00AF016FC9DF801203E
:102A00009DF8001050A00AF00FFC0A20FFF7F4FE1A
:102A1000014652A00AF008FC0F20FFF7EDFE044625
:102A20000E20FFF7E9FE0146224652A00AF0FCFB09
:102A30002548017958A00AF0F7FB38BD5BA00AF0E1
:102A4000F3FB80210720FFF7BFFE80210820FFF75E
:102A5000BBFE80210920FFF7B7FE80210A20FFF787
:102A6000B3FE38BD704710B50F20FFF7C5FE044612
:102A70000E20FFF7C1FE54A00AF0D6FBE0071DD0E0
:102A800059A00AF0D1FB24F001010F20FFF79CFEB2
:102A90000F20FFF7B1FE014659A00AF0C5FB6248BE
:102AA000007828B161A00AF0BFFB092003F0ADFE59
:102AB00007F035FBBDE8104004F06ABABDE81040ED
:102AC00061A00AF0B1BB00005A01002038020020CA
:102AD0000000C8423400002053657474696E67209A
:102AE000616C61726D20666F7220253032643A2508
:102AF0003032640A000000000A416C61726D2043AC
:102B00006F6E66696775726174696F6E2056657263
:102B1000696669636174696F6E3A0A00446179207D
:102B2000636F6E76657273696F6E3A202564202D2F
:102B30003E202564202844533332333120666F729F
:102B40006D6174290A00000054696D653A202530D2
:102B500032643A253032643A30300A005765656B8A
:102B60002072656769737465723A20307825303257
:102B7000580A0000436F6E74726F6C3A20307825EB
:102B80003032582C205374617475733A2030782594
:102B90003032580A0000000043757272656E74206E
:102BA0007765656B3A2025640A0000004453333290
:102BB000333120616C61726D206973206E6F7420F7
:102BC0007365740A000000004453333233312069C6
:102BD0006E7465727275707420747269676765725D
:102BE0006564210A00000000416C61726D20312093
:102BF000666C616720697320736574210A000000A8
:102C000053746174757320616674657220636C65BA
:102C10006172696E67202830783046293A20307812
:102C2000253032580A000000A400002057616B696B
:102C30006E672075702066726F6D20646565702008
:102C4000736C6565700A0000416C61726D20312003
:102C5000666C6167206973204E4F54207365742140
:102C60000A00000010B50446FFF78BFBEC20FFF7CD
:102C70004AFCFFF7FBFB2046FFF745FCFFF7F6FB9E
:102C8000FFF77FFBED20FFF73EFCFFF7EFFBFFF7C1
:102C900069FC0446FFF799FB204610BD70B58820FB
:102CA000FFF7E0FF04468920FFF7DCFF44EA00203D
:102CB000FE4C20808A20FFF7D5FF05468B20FFF7CA
:102CC000D1FF45EA002060808C20FFF7CBFF05464E
:102CD0008D20FFF7C7FF45EA0020A0808E20FFF778
:102CE000C1FF05468F20FFF7BDFF45EA0020E080C9
:102CF0009020FFF7B7FF05469120FFF7B3FF45EAA5
:102D0000002020819220FFF7ADFF05469320FFF7BA
:102D1000A9FF45EA002060819420FFF7A3FF054644
:102D20009520FFF79FFF45EA0020A0819620FFF73E
:102D300099FF05469720FFF795FF45EA0020E081BF
:102D40009820FFF78FFF05469920FFF78BFF45EA94
:102D5000002020829A20FFF785FF05469B20FFF781
:102D600081FF45EA002060829C20FFF77BFF05463B
:102D70009D20FFF777FF45EA0020A0829E20FFF705
:102D800071FF05469F20FFF76DFF45EA0020E082B6
:102D9000A120FFF767FF2076E120FFF763FF0546DC
:102DA000E220FFF75FFF45EA00206083E320FFF7A2
:102DB00059FF2077E420FFF755FF0546E520FFF790
:102DC00051FF65F31F10E083E620FFF74BFF05017D
:102DD0005E20FFF747FF45EA10102084E720FFF749
:102DE00041FF84F82200BDE87040C82003F014BC05
:102DF00070B50C460546FFF7C4FAEC20FFF783FBDD
:102E0000FFF734FB80B1AAA00AF00EFA2846FFF7BC
:102E10007AFBFFF72BFB2046FFF775FBFFF726FB3E
:102E2000BDE87040FFF7D1BAA6A0EDE710B5B62116
:102E3000E020FFF7DDFF142003F0EEFBD020FFF7CA
:102E400011FF9A49103908700421F220FFF7D0FFD2
:102E5000FF21F420FFF7CCFF0421F520FFF7C8FF86
:102E6000BDE810401AE710B5FA20FFF7FBFE040397
:102E7000FB20FFF7F7FE44EA0014FC20FFF7F2FE08
:102E80008A4A44EA1010C3101188B2F90240A3EB39
:102E90004103C1EB20104043B2F904106343001317
:102EA000DB12484303EBA030506200EB800080301F
:102EB000001209F00FFF0022884B09F077FE09F09D
:102EC000B1FF7A491039886010BD2DE9F04395B003
:102ED000884607465021684609F039FC00250098CD
:102EE0002E4610F0FF4F38682C46E94624D013993F
:102EF00009F0C1FC20F00040794909F0AFFF01D290
:102F0000386800904F4657F8240009F047FF2A46DA
:102F1000334609F032FD641CE4B205460E46142C1B
:102F2000F1D300226F4B09F041FE09F07BFFC8F896
:102F3000000015B0BDE8F0830090F8E738B5F72041
:102F4000FFF790FE0403F820FFF78CFE44EA00141C
:102F5000F920FFF787FE554944EA1014624A486A8F
:102F6000B1F9105002EB600082105243D3126B4350
:102F7000B1F90E505213454303EB45038D899B1065
:102F800003EB0543B1F90A506A43D510B1F90820A3
:102F9000424305EB62008014CA8800F500404243BA
:102FA000D21330D0C4F58010A0EB233040F6354367
:102FB0005843B0F1004F03D24000B0FBF2F002E002
:102FC000B0FBF2F04000C2085243B1F91630520B88
:102FD0005A43B1F91440830812136343B1F9121034
:102FE00002EB6332114400EB211009F084FE002251
:102FF0003A4B09F0DBFD09F015FF2C4900900C3924
:103000006846FFF762FF38BD2DE9F05FFE20FFF74D
:1030100029FE0446FD20FFF725FE44EA0029234C43
:10302000606A09F057FE0022304B09F047FD054663
:103030000E46207F09F05FFE6FF0190A524609F034
:1030400024FE2A46334609F03FFDDFF8A4B00022F3
:103050005B4609F092FC0746884694F8220009F086
:103060004AFE524609F011FE2A46334609F02CFD6D
:103070003A46434609F028FD00225B4609F07DFCF4
:1030800007468846B4F91A0009F024FE6FF00F02D3
:1030900009F0FBFD3A46434609F016FD074688460F
:1030A000B4F9200009F016FE24E0000054020020CC
:1030B000426D653238305F5772697465446174617E
:1030C000204F4B00426D653238305F57726974652E
:1030D00044617461206572726F7200000000594093
:1030E000CDCCCC3D000034400006FFFF00C0F240D4
:1030F0000000F03F6FF00D0209F0C7FD2A4633468D
:1031000009F0E2FC05460E46B4F91E0009F0E2FDA6
:10311000062209F0BAFD2A46334609F02EFC054680
:103120000E46484609F0D6FD2A46334609F0C6FC4D
:103130003A46434609F0C8FC05460E46207E09F093
:10314000DAFD2A46334609F0BFFC6FF0120209F09F
:103150009CFD00225B4609F0B4FC2A46334609F088
:10316000B3FC04460D460022574B09F043FE02D241
:103170000024554D08E0002213462046294609F058
:1031800021FE01D2002425462046294609F04AFEA8
:103190004E494F4CC8604968606809F06CFB4D4966
:1031A00009F06FFB4C4909F09EFB09F0B1FDA060EE
:1031B000BDE8F09F7CB500221023114647A004F023
:1031C00099FD424D686809F0E9FD02460B4645A1AC
:1031D00001A80AF039F810233222002101A804F0D6
:1031E00089FD10236422002140A004F083FD002308
:1031F0001A4619463EA004F07DFD354C606809F082
:10320000CDFD02460B4637A168460AF01DF80023A3
:1032100032221946684604F06DFD002364221946E7
:1032200035A004F067FD6968606809F024FB294E49
:10323000314609F026FB09F084FD2080002220237E
:1032400011462EA004F056FD22882EA1684609F0F2
:10325000FBFF20231E220021684604F04BFD2023A3
:103260006422002128A004F045FD002227A1684621
:1032700009F0EAFF00223023114625A004F03AFDB0
:103280006968606809F0F7FA314609F0FAFA1249FC
:1032900009F029FB09F03CFD0246A0601BA168462D
:1032A00009F0D2FF30232D220021684604F022FDD0
:1032B00030235522002118A004F01CFD002213A188
:1032C000684609F0C1FF7CBD00005940440200205F
:1032D000380000200000C842000010414E6F775FA8
:1032E000503A0000252E3166000000006850610051
:1032F0005374645F503A0000687061006469663A14
:1033000000000000253764005061000025640000C3
:10331000416C743A000000004D6574657200000055
:1033200010B500F0C1F92848007938B1A02000F0AC
:10333000CCF8C020BDE8104000F0C7B8A12000F0D4
:10334000C4F8C820F6E77047F0B589B0202000F037
:10335000BCF8002000F0B9F8212000F0B6F80020F9
:1033600000F0B3F87F2000F0B0F8222000F0ADF8B4
:10337000002000F0AAF8072000F0A7F8134E124F23
:103380000025C5F58064202C00DB2024B87898B196
:1033900000206A4603E0315CC9431154401CA0423E
:1033A000F9DBE1B2104600F0BCF820352644B5F553
:1033B000806FE6DB09B0F0BDE1B23046F3E74FF4D1
:1033C0008061024809F0C3B9600C00207C02002033
:1033D00038B501210820FDF790F94FF44044ADF8CD
:1033E000004010208DF803000320B24D8DF802003C
:1033F00069462846FCF799FF21462846FCF7FFFF5F
:103400004FF4FA7003F008F938BD70B5A94D4FF4C8
:10341000004421462846FCF7F2FF66103146284654
:10342000FCF7EDFF31462846FCF7EBFF2146284626
:10343000BDE87040FCF7E5BF70B59E4C4FF400410D
:103440002046FCF7DCFF4FF4804529462046FCF778
:10345000D8FF29462046BDE87040FCF7D0BF70B5C4
:10346000944D4FF4004421462846FCF7C8FF2146FE
:103470002846BDE87040FCF7C4BF2DE9F0418D4FF0
:1034800004464FF4004631463846FCF7BAFF0025A3
:103490004FF4804804F0800080284146384611D01F
:1034A000FCF7AFFF6006040E31463846FCF7A7FF75
:1034B00031463846FCF7A5FF6D1CEDB2082DE9D367
:1034C000BDE8F081FCF79BFFECE710B50446FFF781
:1034D0009CFF7820FFF7D1FFFFF7C1FF0020FFF727
:1034E000CCFFFFF7BCFF2046FFF7C7FFFFF7B7FF92
:1034F000BDE81040A0E710B50446FFF786FF78202E
:10350000FFF7BBFFFFF7ABFF4020FFF7B6FFFFF76A
:10351000A6FF2046FFF7B1FFFFF7A1FFBDE810406F
:103520008AE770B50D00064619D0FFF76EFF7820C8
:10353000FFF7A3FFFFF793FF4020FFF79EFFFFF782
:103540008EFF002406E0305DFFF797FFFFF787FF4F
:10355000641CE4B2AC42F6D3BDE870406CE770BDC9
:1035600070B50546002606F1B000C0B2FFF7ADFF0A
:103570000020FFF7AAFF1020FFF7A7FF002415F88F
:10358000010BFFF7B8FF641CE4B2802CF7D3761C64
:10359000F6B2082EE7D370BD70B5002505F1B00076
:1035A000C0B2FFF792FF0020FFF78FFF1020FFF758
:1035B0008CFF00240020FFF79EFF641CE4B2802CE7
:1035C000F8D36D1CEDB2082DE8D370BD10B5AE2058
:1035D000FFF77BFF2020FFF778FF1020FFF775FF34
:1035E000B020FFF772FFC820FFF76FFF0020FFF742
:1035F0006CFF1020FFF769FF4020FFF766FF812076
:10360000FFF763FFFF20FFF760FFA120FFF75DFFDB
:10361000A620FFF75AFFA820FFF757FF3F20FFF72C
:1036200054FFA420FFF751FFD320FFF74EFF0020E7
:10363000FFF74BFFD520FFF748FFF020FFF745FFCE
:10364000D920FFF742FF2220FFF73FFFDA20FFF7E4
:103650003CFF1220FFF739FFDB20FFF736FF202069
:10366000FFF733FF8D20FFF730FF1420FFF72DFF0A
:10367000AF20FFF72AFFBDE810408DE710B58D2081
:10368000FFF723FF1420FFF720FFBDE81040AF2015
:103690001BE710B58D20FFF718FF1020FFF715FF6F
:1036A000BDE81040AE2010E710B5FFF791FEBDE871
:1036B00010408BE7000C0140008870472DE9F04175
:1036C00016460F460546002407E037F81410284632
:1036D000FEF711FC641CA4B2AD1CB442F5D3BDE8E6
:1036E000F08110B5002305E030F8024B21F81340BB
:1036F0005B1C9BB29342F7D310BD2DE9F05FA0F1A4
:103700000064154688468246B4F5003F50D2FEF765
:10371000F6FAA70AC4F34806C6F50074A54200D815
:103720002C46DFF89CB04FF0006000EB872081460C
:103730004FF400722249FFF7D4FF00204FF6FF72CA
:1037400006E033183BF81310914203D1401C80B2BD
:10375000A042F6D3A04223D24846FEF70AFB00203F
:103760005A4606E038F810108319401C22F813104E
:1037700080B2A042F6D348464FF400721049FFF7DA
:103780009DFFA54210D0281B08EB4408A244002648
:1037900085B24FF400747F1CA542C4D82C46C2E702
:1037A000224641465046EAE7BDE8F05FFEF7B3BA6D
:1037B000BDE8F09F13B5012201A9FFF79EFF1CBDD4
:1037C0007C06002030B57F280FD83F290DD801F0A6
:1037D00007040123A3409D4DC90800EBC110295CDB
:1037E0000AB1194300E09943295430BD2DE9F04F47
:1037F0001746DDF824B00D4604464FF0000A7F2836
:1038000040D83F2D3ED87F2F3CD83F2B3AD8381B8D
:1038100000D540424FFA80FC581B00D540424FFA79
:1038200080F8E04509DD6046C44625461F464FF056
:10383000010A4FFA80F80C461346BC4205D92046CF
:103840003C46074628461D4603464FEA6C069D4205
:1038500001D2012001E04FF0FF30814610E0BAF1C3
:10386000000F5A4610D021462846FFF7ABFFB6EBB3
:10387000080603D505EB0900C5B26644641CE4B232
:10388000BC42ECD9BDE8F08F29462046EDE710B5E3
:1038900005F00CF86E498A68821A322A00D38860D3
:1038A00010BD10B56B4804F0A3FE6B4900200870F2
:1038B00067490870012010BD65498878401E10F0E6
:1038C000FF00887004D1012088704878401C48703F
:1038D000002070475E494878401E10F0FF00487095
:1038E00004D18878401C88700120487000207047FF
:1038F0002DE9F843564F0D464FF48074B9880023E4
:10390000491C89B2F980A14200D1FB80534AFE884C
:10391000A1429055B98000D1BB800026BC884FF0F1
:103920007F0C904614E006FB05F0C0F17F0018F80C
:103930000410C0B20122FFF745FFB878211A8CB2FB
:10394000FF2C03D9C0F58070204484B2761CB6B237
:10395000BCFBF5F0B042E6D2BC880021E14625E090
:10396000BA78A01A80B2FF2803D9C2F58072104439
:1039700080B2012200924E1C18F8003006FB05F0C0
:10398000C0F17F00C2B2694318F804C0C1F17F00E2
:10399000C0B26146FFF72AFFB878211A8CB2FF2C1B
:1039A00003D9C0F58070204484B2B1B2B9FBF5F000
:1039B0008842D5D2BDE8F8833EB5254CE06809F0D1
:1039C000EDF902460B4626A1684609F03DFC0023AE
:1039D0001A461946684604F08DF9206909F0DEF9A7
:1039E00002460B4621A1684609F02EFC002208235E
:1039F0001146684604F07EF9606909F0CFF9024685
:103A00000B461DA1684609F01FFC00221023114639
:103A1000684604F06FF9206909F093F9C0B2617843
:103A2000FFF766FF01203EBD10B5164803F0D7FF33
:103A3000154A1649164803F084FE002004F081FE62
:103A40000549012008700249087010BD7C02002061
:103A500044000020D17900089C0100207C0A00204D
:103A60007069743A252E326600000000726F6C3A5D
:103A7000252E3266000000007961773A252E3266E5
:103A800000000000B9390008D5380008A338000844
:103A9000B938000870B50C460546FEF772FC60B1F7
:103AA000D220FEF730FDFEF709FD40B1FEF78DFC98
:103AB000FEA009F0B9FBC82070BD632070BD284688
:103AC000FEF721FDFEF7FAFC2046FEF71CFDFEF78F
:103AD000F5FC30B1FEF779FCFAA009F0A5FB6520F2
:103AE00070BDFEF772FC002070BDBC2801D301211F
:103AF00010E0622801D302210CE02A2801D303211F
:103B000008E0142801D3042104E00A2801D3052188
:103B100000E006211A20BDE710B504464FF47A7084
:103B2000844201D9044602E0042C00D20424B0FBF4
:103B3000F4F0401EC1B21920FFF7ACFF6008BDE8E9
:103B40001040D2E710B50446FEF71BFCD220FEF76A
:103B5000DAFCFEF7B3FC2046FEF7D5FCFEF7AEFC20
:103B6000FEF70FFCD320FEF7CEFCFEF7A7FCFEF716
:103B7000F9FC0446FEF75EFCFEF727FC204610BD6C
:103B8000C006010E1C2085E7C006010E1B2081E740
:103B900010B5FEF7C1FB80216B20FFF77BFF0028EB
:103BA0002AD1642002F038FD00216B20FFF772FF5C
:103BB0000320FFF7E9FF0020FFF7E2FF3220FFF7C5
:103BC000ABFF00213820FFF765FF00216A20FFF7D7
:103BD00061FF00212320FFF75DFF80213720FFF7E1
:103BE00059FF7520FFF7AEFF04460146BBA009F060
:103BF0001BFB692C01D0012010BD01216B20FFF7B8
:103C000049FF00216C20FFF745FF3220FFF784FFBA
:103C1000002010BD2DE9F0411C4615460F46064612
:103C2000FEF7AFFB7006000EFEF76DFCFEF746FCDC
:103C300020B1FEF7CAFB0120BDE8F0813846FEF74F
:103C400062FCFEF73BFCFEF79CFB012000EB46000C
:103C5000C0B2FEF758FCFEF731FC09E0012D0DD093
:103C6000FEF780FC2070FEF7CCFB6D1EEDB2641CED
:103C7000002DF3D1FEF7A9FB0020DDE7FEF772FC73
:103C80002070FEF7D7FBF0E708B56B460222412112
:103C90006920FFF7BFFFBDF8000040BA00B209F08D
:103CA00019F80022904B08F081FF904A904B08F0E1
:103CB00064FE09F0B7F88F4908F0E3FD09F028F831
:103CC00000B208BD7CB514460D4606466B4606227A
:103CD00043216920FFF79EFF00280BD1BDF800109B
:103CE00049BA3180BDF8021049BA2980BDF80410E4
:103CF00049BA21807CBD7CB514460D4606466B460C
:103D000006223B216920FFF785FF00280BD1BDF873
:103D1000001049BA3180BDF8021049BA2980BDF8B7
:103D2000041049BA21807CBD2DE9F0411D4616469C
:103D30000C460746FEF725FB7806000EFEF7E3FB70
:103D4000FEF7BCFB18B1FEF740FB6BA00FE020466E
:103D5000FEF7D9FBFEF7B2FB00240EE0285DFEF76C
:103D6000D2FBFEF7ABFB30B1FEF72FFB68A009F0EA
:103D70005BFA012060E7641CE4B2B442EED3FEF7C4
:103D800024FB002058E73EB5044602AA01A9684674
:103D900001F026FD2046009908F070FD6249884236
:103DA00001D902203EBD6149884201DD01203EBDAE
:103DB00000203EBD3EB5044602AA694601A801F0B6
:103DC0000FFD2046009908F059FD5749884201D956
:103DD00002203EBD5549884201DD01203EBD002044
:103DE0003EBD3EB502AA01A96846FFF76BFFBDF9CB
:103DF000001040F6B834012200204D4BA14201DDF5
:103E00001A7014E040F6B834E14202DA5A701870C1
:103E10000EE019785A7831EA020402D018700120B5
:103E20003EBD8A4302D0587002203EBD18705870C3
:103E300000203EBD3EB502AA01A96846FFF742FF39
:103E4000BDF9040040F6B83401220021384BADF82A
:103E50000000A04201DD9A7014E040F6B834E04260
:103E600002DADA7099700EE09878DA7830EA0204B3
:103E700002D0997001203EBD824302D0D970022049
:103E80003EBD9970D97000203EBD30B587B002AA02
:103E900001A96846FFF72FFF30B905AA04A903A8B6
:103EA000FFF710FF00B945E09FE000000A4D5055B4
:103EB0005F4932435F5761697441636B2065727279
:103EC0006F720A004D50555F4932435F5761697404
:103ED00041636B2829206572726F7200616464729D
:103EE0002025640A0000000000407540A4703D0ACF
:103EF000D74342400000C8424D50555F5772697425
:103F0000655F4C656E206572726F72310000000053
:103F10004D50555F57726974655F4C656E206572D0
:103F2000726F7232000000000000A0C10000A041CA
:103F30005C000020BDF90010BDF90400494300FBFE
:103F40000011BDF9080000FB00100AF0F3FC08F0B6
:103F5000B3FE664D4FF4FA64A84211DCBDF90C00C3
:103F600000F57A70A0420BD8BDF9100000F57A7008
:103F7000A04205D8BDF9140000F57A70A04234D9EA
:103F8000642002F049FB02AA01A96846FFF7B3FECC
:103F900058BB05AA04A903A8FFF794FE28BBBDF9E6
:103FA0000010BDF90400494300FB0011BDF90800F1
:103FB00000FB00100AF0BEFC08F07EFEA84211DCF7
:103FC000BDF90C0000F57A70A0420BD8BDF91000C5
:103FD00000F57A70A04205D8BDF9140000F57A709A
:103FE000A04202D9012007B030BD0020FBE710B588
:103FF00001211D20FFF74EFD0121BDE810401E20CC
:1040000048E510B505211F20FFF744FD1421BDE848
:10401000104020203EE510B520212120FFF73AFD79
:104020002021BDE81040222034E57FB50121082081
:10403000FCF763FB4FF40064ADF80C4048208DF8AA
:104040000F0003208DF80E0003A92948FCF76DF935
:1040500001210846FCF751FB0B210120FCF719FA5E
:10406000009400248DF8044008208DF805000125F7
:104070008DF806506846FDF7EFFC28208DF8080003
:104080008DF809408DF80A408DF80B5002A8FCF716
:104090001CFD7FBD10B5FFF7B4FF04211A20FFF708
:1040A000F9FC1C210846FFF7F5FC1C213720FFF71F
:1040B000F1FC40213820FFF7EDFCBDE81040B4E7EB
:1040C00010B54FF400642046FDF716FD00280CD013
:1040D0002046FDF71FFD07A009F0A6F80848007864
:1040E000002802D007490120087110BD00606A460F
:1040F000000C01406D707520696E740A00000000AC
:10410000A40000205C000020F8B5FE4C00232246ED
:1041100094F82460D2E900125D1E56B190B10220DD
:104120000DE01078C97B6B460122FFF7FDFD60B9F9
:104130000DE0A67A4EB128B1607C58B901208DF807
:104140000000EEE78DF80030EBE72846F8BD9DF85B
:10415000000060740020F8BD38B50024E94D18E077
:104160002868C27AA24212D0407DA0420FD00878BF
:104170006B4601222146FFF74DFD10B14FF0FF3095
:1041800038BD9DF800202146DFA009F04DF8641CE1
:10419000E4B269680879A042E2D8002038BDD94A63
:1041A00030B40B4611684FF0FF34CD7A854206D00B
:1041B000497D814203D051680A79824202D8204663
:1041C00030BC70470C780146204630BC0122FFF716
:1041D00021BD38B5CB4D044695F82300A04201D14E
:1041E000002038BD0CB1302000E000208DF8000028
:1041F000A87C28B19DF8000040F002008DF8000076
:1042000095F8220028B19DF8000040F080008DF85C
:10421000000028686B460122017D68680078FFF77E
:1042200083FD10B14FF0FF3038BD85F82340D7E74C
:10423000F8B5044610F0700F4FF0000601D00120D1
:1042400004E014B18DF8006002E040208DF8000019
:10425000AC4D6B4601222868817C68680078FFF7C6
:1042600063FD4FF0FF3760BB9DF8000020F0400079
:1042700028738DF80060600602D404208DF80000D9
:10428000A00605D49DF8000040F002008DF8000063
:10429000E00605D49DF8000040F001008DF8000014
:1042A000200705D49DF8000040F038008DF800008C
:1042B00028686B460122C17C68680078FFF734FDEE
:1042C00010B1AE723846F8BD24B1082C02D00020DF
:1042D000FFF77FFFAC722E75322002F09DF90020AF
:1042E000F8BDF8B5874D0446A87CA04201D1002056
:1042F000F8BD84484FF0FF366B46D0E900104FF010
:1043000001020979007834B3FFF784FCD8BB9DF82B
:1043100000006B4620F020008DF800002868012284
:10432000017968680078FFF7FFFC60BB032002F0AA
:1043300073F902208DF8000095F8220070B38220F6
:104340002AE028686B460122017D68680078FFF743
:10435000EBFCC0B92DE0FFF75DFCA0B9A87AC0075F
:104360009DF8000002D040F0200001E020F0200085
:104370008DF8000028686B46012201796868007892
:10438000FFF7D2FC08B13046F8BD032002F044F933
:1043900095F8220000B180208DF8000095F82300E8
:1043A0000028CED09DF8000040F030008DF80000CD
:1043B000C7E7AC749BE7F8B5524D4FF0FF36A87ACB
:1043C00000287CD000248DF8004028686B4601222C
:1043D000C17B68680078FFF7A7FC00286FD12868C8
:1043E0006B460122417968680078FFF79DFC002840
:1043F00065D128686B460122017968680078FFF76B
:1044000093FC00285BD195F82400E0B30C208DF8D4
:10441000000028686B460122017968680078FFF780
:1044200083FC00287DD1322002F0F6F8C0208DF800
:104430000000A87AC00702D0E0208DF800002868AC
:104440006B460122017968680078FFF76DFC00284F
:1044500067D1687C18B102208DF8000001E08DF86A
:10446000004028686B460122C17B68680078FFF72E
:104470005BFC20BB8DF8004028686B460122417927
:10448000686800783DE0FFE704208DF800002868A8
:104490006B460122017968680078FFF745FC70B926
:1044A000A87C88B9A87AC0070ED060208DF80000DB
:1044B00028686B46012201796868007800E02BE0EB
:1044C000FFF732FC40BB01E04020EFE7322002F072
:1044D000A3F8687C18B101208DF8000001E08DF888
:1044E000004028686B460122C17B68680078FFF7AE
:1044F0001BFC88B92868034B417968681033012296
:1045000000780AE064000020252335783A2025232E
:1045100035780D0A0000000003E0FFF705FC0028D5
:1045200000D03046F8BD2DE9F041FB4D20F00104EC
:10453000002695F8240010B10020BDE8F081A87A8B
:104540004FF0FF3838B120402F7C2874A04200D0B3
:10455000464624B901E04046EFE7287D40B10120FE
:10456000FFF7D2FD3CB1FFF726FF20B12F74F2E731
:104570000020FFF7C9FD3046DFE738B5E64C4FF0C5
:10458000FF35A17A31B3BC2801D3012010E06228A5
:1045900001D302200CE02A2801D3032008E01428CC
:1045A00001D3042004E00A2801D3052000E00620FE
:1045B0008DF80000E07A9DF80010884201D10020BB
:1045C00038BD20686B460122817860680078FFF76B
:1045D000ABFB08B1284638BD9DF80000E072EEE75D
:1045E0002DE9F84304464FF0FF39282844D807271F
:1045F000C94D00267CB10120FFF7EBFD20208DF88E
:1046000000004FF00108012C17D0052C18D88DF8A8
:10461000018005201FE00020FFF7DBFD8DF8006022
:104620008DF8017028686B460222817C68680078EA
:10463000FFF77AFB00BB2E7529E08DF80160E8E7F3
:10464000142C04D802208DF801000A2003E0032076
:104650008DF801001420FFF790FF9DF801006B46D4
:1046600007EB80108DF8010028680222817C6868C1
:104670000078FFF759FB10B14846BDE8F8830820E1
:10468000A8722E7385F814800020FFF74CFF0020DD
:10469000F3E7F8B5A04D04464FF0FF37A87A28B3EA
:1046A00095F8240010BB287D48B12CB1282C03D8E4
:1046B000E0B2FFF795FF24E00020FFF791FF4FF4F1
:1046C0007A76042C01D2042402E0B44200D93446A4
:1046D000B6FBF4F0401E8DF8000028686B460122FE
:1046E000417868680078FFF71FFB08B13846F8BDCD
:1046F0009DF80000401CB6FBF0F0E8814008FFF791
:104700003CFF0020F8BD38B5834C4FF0FF35A17A4F
:1047100019B3022806D0042806D008280ED0102885
:104720001BD10DE0002000E008208DF80000607A29
:104730009DF80010B0EBD10F04D005E01020F4E795
:104740001820F2E7002038BD20686B460122C179AD
:1047500060680078FFF7E8FA08B1284638BD9DF890
:104760000000C0086072EDE738B56B4C4FF0FF35C4
:10477000A17A31B3FA2809D0B0F5FA7F08D0B0F5A4
:104780007A7F0FD0B0F5FA6F1BD10DE0002000E06A
:1047900008208DF80000207A9DF80010B0EBD10FB2
:1047A00004D005E01020F4E71820F2E7002038BD1F
:1047B00020686B460122817960680078FFF7B4FABF
:1047C00008B1284638BD9DF80000C0082072EDE70A
:1047D0007CB5514C6068017850A008F025FD802020
:1047E0008DF8000020686B460122817C60680078AB
:1047F000FFF79AFA10B16FF06E007CBD642001F0F3
:104800000BFF00258DF8005020686B460122817C4B
:1048100060680078FFF788FA08B1A81E7CBD2068A0
:104820006B460622817D60680078FFF7F3F910B1CE
:104830006FF002007CBD9DF805009DF80310C007D5
:10484000400F01F0010140EA41019DF801004FF0E5
:10485000010600F0010001430AD0012906D0022917
:1048600019D033A008F0E0FC701F7CBDE67413E0A3
:1048700020686B460122C17860680078FFF7CAF9AA
:1048800010B16FF004007CBD9DF8000010F00F0027
:1048900022D0042826D0E574FF2004F80A0F4FF632
:1048A000FF7104F8020C04F8010C6070A180A07183
:1048B0002072A67026766576E572A572E5602561A0
:1048C0006561A576E576A5834FF4FA60FFF74CFFA6
:1048D00060B16FF009007CBD1F4808F0A5FC6FF0C7
:1048E00005007CBD1DA008F09FFCBFE70220FFF77C
:1048F0000AFF10B16FF00A007CBD2A20FFF73DFED1
:1049000010B16FF00B007CBD3220FFF7C2FE10B17A
:104910006FF00C007CBD31E0640000200A73742E3F
:1049200068772D3E616464723A2025640A000000B5
:10493000556E737570706F7274656420736F6674F2
:10494000776172652070726F64756374207265762A
:104950002025642E0A0000008832010848616C6638
:104960002073656E736974697669747920706172F9
:104970007420666F756E642E0A0000000020FFF739
:10498000D2FD10B16FF00D007CBD0020FFF7A9FC37
:1049900010B16FF00F007CBD0020FFF749FC002034
:1049A0007CBD70477CB50446F7484FF0FF35817AEF
:1049B00011F0700F08D0016840686B46097B0078E1
:1049C0000622FFF727F908B128467CBDBDF8000094
:1049D00040BA2080BDF8020040BA6080BDF80400F3
:1049E00040BAA08000207CBD7CB50446E6484FF06C
:1049F000FF35817A090708D5016840686B46497B15
:104A000000780622FFF706F908B128467CBDBDF8FC
:104A1000000040BA2080BDF8020040BA6080BDF8B6
:104A2000040040BAA08000207CBDF8B5D64C0746F3
:104A30004FF0FF35A07A40B120686B460222817B9F
:104A400060680078FFF7E6F808B12846F8BDBDF8C1
:104A50000000646840BA05B2E08808F036F90646FE
:104A6000B4F9080008F028F90446284608F024F9AB
:104A7000214607F000FF314607F035FFC34907F034
:104A8000A8FE102107F06DFF08F042F93860002001
:104A9000F8BD2DE9FC4104004FF0FF3862D02068DA
:104AA00020B9606810B9A06800285CD0B64F032216
:104AB0006B46786811460078FFF7ACF8F0BB9DF8BC
:104AC0000010082000EB111101F00F029DF80110F9
:104AD0009DF8023000EB111100EB131023684032F7
:104AE0005B0093FBF2F216B2626801F00F01520014
:104AF000403192FBF1F10DB2A16800F00F004900C6
:104B0000403091FBF0F004B2786806226B460078E2
:104B10001146FFF77FF888B9BDF80000BDF8021014
:104B200040BABDF804203044030A49BA52BA8DF89D
:104B30000030294422448DF8010000E012E0080A08
:104B40008DF80200100A8DF804008DF803108DF81E
:104B50000520786806226B4600781146FFF7E4F8D6
:104B6000002800D04046BDE8FC818749097A39B168
:104B7000012907D002290AD003290BD0002103E024
:104B8000FA2101E04FF4FA710180002070474FF4E0
:104B90007A71F9E74FF4FA61F6E77B4A517A41B14D
:104BA000012908D002290FD003290FD04FF0FF3080
:104BB0007047022100E004210170D17C11B101781D
:104BC00049000170002070470821F5E71021F3E744
:104BD0006D49C97A072913D2DFE801F01204060AE9
:104BE0000C0E1000BC2100E0622101800020704703
:104BF0002A21FAE71421F8E70A21F6E70521F4E76C
:104C00000021F2E7604991F8242012B14FF0FF3003
:104C10007047C98901800020704700210180481E2B
:104C200070474FF0FF3070475749097A41B1012969
:104C300008D002290AD003290AD04FF0FF3070476C
:104C4000534900E053490160002070475249FAE798
:104C50005249F8E74C4A517A41B1012909D0022959
:104C600011D0032912D04FF0FF3070474FF480412C
:104C700001E041F69C710180D17C11B101884908A5
:104C80000180002070474FF48051F4E74FF4006139
:104C9000F1E73D49097C0170002070473A49897A63
:104CA00001B1012101700020704738B50546364832
:104CB0004FF0FF34817A41B1016840686B46097C4E
:104CC00000780222FEF7A6FF08B1204638BDBDF8E5
:104CD000000040BA2880002038BD2DE9FE4F8846EC
:104CE00029498146002491F824001E4625464FF0AC
:104CF000FF3BD0BB00203070887AB0B3087CA0B3F3
:104D0000420600D50224820600D5A41CC20600D5A6
:104D1000A41C000700D5A41D8A460968DAF804001F
:104D20006B46897A00780222FEF774FFE8B9BDF875
:104D3000000047BAA74279D3DAF804004188B7EBFC
:104D4000510F13D9DAF8001000786B46497C012224
:104D5000FEF760FF48B99DF80000C00606D5FFF7D2
:104D60002AFB6FF00100BDE8FE8F0AE0DAF80010C0
:104D7000DAF804006B46C97A00782246FEF74AFF4B
:104D800070B15846EFE700006400002000000C42BC
:104D90000000034300008342333303423333834133
:104DA000B7FBF4F00C99401E087000203070ECB393
:104DB0009AF8101050460A07694613D5BDF800202E
:104DC000062552BAA8F80020BDF8022052BAA8F869
:104DD0000220BDF8042052BAA8F80420327842F02C
:104DE00008023270A5420CD0027C520609D54A193D
:104DF000AD1C128852BAA9F80020327842F0400265
:104E00003270A5420CD0027C920609D54A19AD1C1D
:104E1000128852BAA9F80220327842F02002327089
:104E2000A5420ED09AF81000C00600E009E008D5AF
:104E30004819008840BAA9F80400307840F0100002
:104E4000307000208FE72DE9F843FB4E05461746EA
:104E500096F8240089464FF0FF3890B3B07A80B3BB
:104E600030686B460222817A70680078FEF7D2FEC5
:104E700038BBBDF8000044BAAC4202D20020387002
:104E80001FE070684188B4EB510F11D93168007888
:104E90006B46497C0122FEF7BDFE90B99DF80000EB
:104EA000C00605D5FFF787FA6FF00100BDE8F8836B
:104EB0003068EAB24B46C17A70680078FEF7AAFE05
:104EC00008B14046F2E7B4FBF5F0401E3870002010
:104ED000ECE7D94981F82200002070472DE9FE4F08
:104EE00005460120D44E8DF800004FF000088DF8E3
:104EF000018030680C461746817C70686B46022240
:104F00000078FEF711FF4FF0FF3A00287AD1C82051
:104F100001F082FB8DF8008030686B460122C17B76
:104F200070680078FEF700FF0028EFD130686B460C
:104F30000122417970680078FEF7F6FE0028E5D17D
:104F400030686B460122817C70680078FEF7ECFEC9
:104F50000028DBD130686B460122C17D7068007883
:104F6000FEF7E2FE0028D1D130686B4601220179BC
:104F700070680078FEF7D8FE0028C7D14FF00C0902
:104F80008DF8009030686B460122017970680078D6
:104F9000FEF7CAFE002835D10F2001F03DFBB06AB4
:104FA0006B460122407A8DF8000030688178706885
:104FB0000078FEF7B9FE002824D1B06A6B460122C2
:104FC000007A8DF800003068417870680078FEF74C
:104FD000ABFE002873D1B06A807A0FB140F0E000D8
:104FE0008DF8000030686B46012281797068007886
:104FF000FEF79AFE002862D12FB1B06AC07A40F065
:10500000E00001E04AE018208DF8000030686B46AF
:105010000122C17970680078FEF786FEF0BB17B1F7
:10502000C82001F0F9FA40208DF8000030686B4686
:105030000122017970680078FEF776FE70BB782057
:105040008DF8000030686B46012241797068007865
:10505000FEF76AFE10BB322001F0DEFA8DF8008008
:10506000306847466B464179706801220078FEF748
:105070005BFE98B931687068B046897A00786B46F3
:105080000222FEF7C7FD48B9BDF80000AF6040BA84
:10509000B0FBF9F06F60C6B22F6000E00FE0A760D0
:1050A00067602760002738E0D8F80010D8F80400BF
:1050B0006B46C97A00780C22FEF7ACFD08B1504669
:1050C00051E6BDF80000236840BA02B2BDF8020004
:1050D0001A4440BA01B2BDF804002260626840BAC6
:1050E00011446160A16800B20844A060BDF80600E8
:1050F0002B6840BA02B2BDF808001A4440BA01B2A7
:10510000BDF80A002A606A6840BA11446960A9685B
:1051100000B208447F1CFFB2A860B742C4D328681D
:105120008322C117090441EA10410004002307F05B
:10513000B1FA3246002307F0ADFA2860686883228E
:10514000C117090441EA10410004002307F0A2FA44
:105150003246002307F09EFA6860A8688322C117D0
:10516000090441EA10410004002307F093FA324693
:10517000002307F08FFAA86020684FF40065C1177C
:10518000090441EA104100042A46002307F082FA8C
:105190003246002307F07EFA206060682A46C11775
:1051A000090441EA10410004002307F073FA324673
:1051B000002307F06FFA6060A0682A46C11709044F
:1051C00041EA10410004002307F064FA324600234C
:1051D00007F060FAA060002802DDA0F5803001E051
:1051E00000F58030A0600020BDE538B5124C94F881
:1051F000241081421DD00025E8B194F82500E8B1C3
:105200000020FEF781FF0020FFF76BF8E08CFFF72E
:1052100040FA8DF8005060686B4601220078232127
:10522000FEF782FD012084F82400FEF76DFFFFF7F2
:10523000C2F8002038BD04E0640000204FF0FF30C9
:10524000F8E70020FEF760FF207C8DF80000606822
:105250006B46012200782321FEF766FD84F8245076
:10526000E5E72DE9F047F94E82468AB096F824002A
:105270000F4620B10020FFF7B8FF012500E0002510
:1052800007A8FFF772FC06A8FFF787FC09A8FFF73D
:105290009FFC08A8FFF7B6FC96F80A9096F81080D5
:1052A0000024002239465046FFF718FE10B1641C56
:1052B000022CF6DB022C1AD00024012203A9684636
:1052C000FFF70CFE10B1641C022CF6DB022C0ED092
:1052D00003A9384600F04FFBC7B26946504600F0BC
:1052E00082FB10F0FF0F4FF0000402D002E0002418
:1052F00003E001240FB944F00204FF203072707201
:10530000F0724FF6FF71F181B0723074012030738A
:10531000BDF81C00FFF728FA9DF81800FFF7F3F915
:10532000BDF82400FFF729F9BDF82000FFF7B1F917
:105330004846FEF77DFF4046FFF7F5F815B101201E
:10534000FFF753FF0AB02046BDE8F087F8B5170015
:105350000D464FF0FF341FD0BC4EB17AE1B1010AC7
:105360008DF80010C0B28DF80100411970684289B3
:10537000914211D8316800786B46097E0222FEF70F
:10538000D3FC48B93068EAB23B46417D706800788A
:10539000FEF7CAFC002800D02046F8BDF8B517007B
:1053A0000D464FF0FF341FD0A84EB17AE1B1010A8B
:1053B0008DF80010C0B28DF8010041197068428963
:1053C000914211D8316800786B46097E0222FEF7BF
:1053D000ABFC48B93068EAB23B46417D7068007862
:1053E000FEF718FC002800D02046F8BD2DE9FF4F3D
:1053F000DFF858A2054685B09AF825009146884600
:105400004FF0FF3BC0BBB8F1000F35D000241FE0C8
:10541000281B102800DD102086B208EB04073A464E
:1054200031462046FFF792FF30BB6A4631462046A0
:10543000FFF7B4FF00BB38463246694607F0A5F9CE
:1054400020B16FF0010009B0BDE8F08FA01984B25F
:10545000AC42DDD34FEA19208DF810008DF8119081
:10546000DAF80000544604AB817EDAF80400022228
:105470000078FEF759FC08B15846E4E7012084F8AB
:1054800025000898E0840020DDE7704991F8241099
:105490000170002070474FF0FF3070474FF0FF3031
:1054A00070474FF0FF3070472DE9F84F674C0F46BB
:1054B00004F1160115004FF0FF3B8A464FF000093A
:1054C0004FF0010877D0B0F5FF5F01D9FF2605E066
:1054D000202801D2012601E0C0F3471607B90127B1
:1054E000282D6AD8607DF0B994F8240028B10020F6
:1054F000FFF77BFE84F8208001E084F8209050467E
:10550000FFF733FB51481830FFF747FB4F481A307D
:10551000FFF75EFB4D481C30FFF774FBA07AA077C5
:105520004A48217CC1770020FEF7EEFD0020FFF7FE
:1055300057F88DF8009020686B46012281786068EA
:105540000078FEF7F1FB002837D140208DF80000ED
:1055500020686B460122C17B60680078FEF7E4FB9F
:1055600050BB8DF800608DF8017020686B460222F8
:10557000017A60680078FEF7D7FBE8B9052001F0F2
:105580004BF8607A072606EBC0008DF80000206813
:105590006B460122C17960680078FEF7C5FB58B9F7
:1055A00020208DF80000012D08D0052D0AD8404696
:1055B0008DF801800DE01DE01FE04CE048468DF8BD
:1055C000019006E0142D01D8022000E003208DF8A0
:1055D0000100C0B206EB80108DF8010020686B4618
:1055E0000222817C60680078FEF79EFB28B984F86F
:1055F000158027E000200A5C3AB3FF202072607219
:10560000E0724FF6FF71E181A072207484F80C8083
:10561000A07FFEF70DFEE08AFFF7A6F8207EFFF7D9
:1056200072F8608BFEF7A9FFA08BFFF732F8E07FDE
:10563000FEF779FF94F8200010B10120FFF7D5FDA7
:1056400084F815900020BDE8F88F01E06400002088
:10565000401C0C28CFD35846F5E710B588B002A9F6
:1056600005A8FFF7FEFD032802D0012008B010BDF9
:105670006846FFF7D9FA059807F01EFB00990C461B
:1056800007F0FFF807F044FB0590069807F014FBBD
:10569000214607F0F6F807F03BFB0690079807F065
:1056A0000BFB214607F0EDF807F032FB079005A849
:1056B00000F0E1FA01A8FFF7CDFABDF80400029965
:1056C000414302910399414303910499414302A844
:1056D000049100F032FB0020C8E790F90010002987
:1056E00002DD4FF00000704702DA4FF0040070470F
:1056F00090F90110002902DD4FF00100704702DA35
:105700004FF00500704790F90200002802DD4FF0CD
:105710000200704702DA4FF0060070474FF00700B2
:10572000704700B50246FFF7D8FF0346D01CFFF7CD
:10573000D4FF43EAC003901DFFF7CFFF43EA801078
:1057400080B200BD10B5FFF743F810B14042C0B2BF
:1057500010BD7820FEF76CFD10F0FF0F01D01F2068
:1057600010BD7820FEF7DFFE10F0FF0F01D02020E3
:1057700010BD6420FEF78DFF10F0FF0F01D0212037
:1057800010BD00F0F5F910F0FF0F01D0222010BD80
:10579000ED48FFF7C6FF00F0F3F910F0FF0F01D05E
:1057A000232010BD40F2731000F035FD10F0FF0F04
:1057B00001D0242010BD642000F026FB10F0FF0F64
:1057C00001D0252010BDFFF748FF08B1262010BDED
:1057D0000120FFF70AFD10F0FF00F8D0272010BDD0
:1057E0002DE9F74F8EB00CA906A8CDE900010BAB4F
:1057F00002AA09A907A800F01BFE10B1012011B0F0
:1058000022E6BDF81800C0057ED5029807F054FACC
:105810006FF01D04214607F0A4F88146039807F0B5
:105820004BFA214607F09DF88046049807F044FAA9
:10583000214607F096F80646059807F03DFA2146FE
:1058400007F08FF882460121484607F08AF807469C
:10585000314607F016F804464FF04041404607F045
:1058600010F80546514607F00CF8214606F0B1FF46
:1058700007F094FA08F0A8FC4FF0663B5A46B34B89
:1058800007F022F907F0CEFA0E99086001213046A0
:1058900007F067F83146009006F0F3FF044628460B
:1058A000414606F0EEFF214606F0E5FF4FF07E513F
:1058B00006F08FFF07F072FA04460D46384641465F
:1058C00006F0DFFF07465146009806F0DAFF39463A
:1058D00006F07FFF07F062FA22462B4608F0BCFE76
:1058E0005A469A4B07F0F0F807F09CFA0F990860B7
:1058F0005146084606F0C5FF07463146084606F001
:10590000C0FF0546414600E033E0084606F0B9FF17
:1059100004464946084606F0B4FF214606F059FF02
:10592000294606F0A8FF394606F0A5FF07F036FA2B
:1059300004460D465146484606F0A3FF0746314649
:10594000404606F09EFF394606F043FF012107F06E
:1059500008F807F023FA22462B4608F07DFE5A4647
:105960007A4B07F0B1F807F05DFA10990860002053
:1059700045E7022043E72DE9FE4F80460F4600250C
:10598000684600F091F800246FF00F0AE9460126FE
:1059900058F8240057F82410401A00D5404207F068
:1059A0008BF9514606F0DDFF59F8241011F0FF4F36
:1059B0000BD006F098FF4FF07E5106F05CFF644973
:1059C00020F00040884205DC07E062490844624953
:1059D000884202D306FA04F00543641C032CD7DB8B
:1059E0002846BDE8FE8F2DE9F84F82465648894685
:1059F0002C38002540686B46032200780D21FEF705
:105A000009F908B107201EE69DF80000002400F007
:105A10001F008DF800009DF801006F4600F01F0088
:105A20008DF801009DF802004FF0010800F01F0002
:105A30008DF802005AF8241059F82400081A00D5ED
:105A4000404207F039F96FF00F0106F08AFF064671
:105A5000385DE0B1414ADFF808B104E0594610462C
:105A600006F00FFF0246385D401E10F0FF0038556B
:105A7000F4D11146304606F036FF4FF07E5106F065
:105A8000FAFE334920F00040884205DC07E0354843
:105A90003044B0F1D97F02D908FA04F00543641C00
:105AA000032CC7DB2846CEE52DE9FC4705462648F2
:105AB0006B462C38042240680D210078FEF7AAF8C6
:105AC00010B10720BDE8FC879DF800001C2101EA09
:105AD000D0029DF80300DFF89090C0F301131A4341
